:020000040000fa
:020000040100f9
:100200000000fa00efad2000007f2200000188000e
:1002100000000000020007000080fa000000060055
:100220000000fa000000eb00203a8800ca01070035
:10023000fb0207007a0207000b000700fdff3700f2
:100240003200f800881f780008002000980188001c
:100250004f0478000000fa000000fe000080fa0061
:100260003200f900004006000400fa0060508000ef
:100270004c00de000080fb006101b900028fbe006f
:10028000e0002000010020001e01be00800f510090
:10029000818f59003f003e001e00be00006001003b
:1002a0000e0037000d0037000c0037003900370012
:1002b00010003700170037003600370017003700ee
:1002c000340037001b0037002000370027003700bc
:1002d000280037000900370022003700d38aa80021
:1002e000d3aaa900d3caa900d3eaa9003000070005
:1002f0002d003700970007002b003700d38aa80095
:10030000d3aaa800d3caa900d3eaa90028000700ed
:1003100025003700ec00070023003700d38aa8002f
:10032000d3aaa800d3caa900d3eaa90020000700d5
:100330001d003700d38aa800d3aaa800d3caa900f9
:10034000d3eaa9001a00070017003700d38aa800d3
:10035000d3aaa800d3caa900d3eaa90014000700b1
:10036000110037001e0107000f0037004001070091
:100370000d00370047010700c0568800d38aa80047
:10038000d3aaa900d3caa900d3eaa900080007008c
:1003900005003700d38aa800d3aaa800d3caa900b1
:1003a000d3eaa900020007000080fa00000006005e
:1003b0000000fa009156800000002f00808060004d
:1003c00000002100808f500006003200915680000e
:1003d00000002f008080600000002300808f50000c
:1003e00003003a000040eb00d2eab70002003700f9
:1003f00010c0b300d2eab700605080004c00de00ad
:100400000080fb006f0060004801dd009156800015
:10041000f00f2f00008060000200700090568800ee
:100420009156800000f020008080600000102000c5
:10043000808f500005003a000fcabf000080fb000b
:100440000080e800a0568800200037009156800008
:1004500000f020008080600000202000808f50008d
:100460000d003a00705080000000d1006300b90018
:100470000080e800a0568800705080006100600095
:100480000004e00011003200a05680000080e80067
:10049000a05688000d0037009156800000f0200023
:1004a0008080600000c02000808f500005003a006e
:1004b00030002000a0568800c0568000b05688004a
:1004c0000200370020002000a0568800e601070047
:1004d0000080fa00000006000000fa00f00424008a
:1004e000003b880061c7a80057052000373b880003
:1004f000a70a2000373b880061e7a8000000000041
:100500000000000061c7bf0001c8b30001406000e7
:100510000004e000fbff3a00d38aa800d3aaa90098
:10052000d3caa900d3eaa900a1ff07000080fa00fe
:10053000000006000600fa00d38aa800d3aaa8008b
:10054000d3caa900d3eaa90099ff07000080fa00e6
:10055000000006000400fa000ecabf000080fb0085
:10056000a002880030002400003b880090508000ea
:100570001007980080508000000f78009e009000c7
:100580001e0078000108bb0061c7a80050052000cc
:10059000303b8800a00a2000303b880061e7a800bb
:1005a00000000000000000001007980061c7bf00b5
:1005b00001c8b300014060000004e000fbff3a0006
:1005c000d38aa800d3aaa900d3caa900d3eaa90054
:1005d00077ff07000080fa00000006000400fa0020
:1005e0000ecabf000080fb00a0028800300024007b
:1005f000003b8800905080001007980080508000d9
:10060000000f78009e0090001e0078000108bb00db
:100610000fcabf000080fb00100798009e009000ea
:100620001e00780001c8bb0061c7a800500520006b
:10063000303b8800a00a2000303b880061e7a8001a
:1006400000000000000000001007980061c7bf0014
:1006500001c8b300014060000004e000fbff3a0065
:100660001e0078001000ba0010079800d38aa90075
:10067000d3aaa800d3caa900d3eaa9009150800048
:100680001e009000808f50000c003a001e00780081
:1006900010c0ba00100798001e009000804078003b
:1006a0000fcabf0080cf500004003a00d38aa800d0
:1006b000d3aaa900d3caa900d3eaa9003cff070026
:1006c0000080fa000000060010002400003b8800b3
:1006d000c5a020000000eb0025449000a504900078
:1006e00066834200a8028800890378000001200088
:1006f000b60bbb00b6dbbb00b6ebbb00b61bbb004a
:10070000b60bbb00b6dbbb00b6ebbb00b61bbb0039
:100710000000e900f6ff3a0005000900460b7800ea
:100720008000200080835300b60bbb0061c7a80087
:1007300057052000373b8800a70a2000373b880078
:1007400061e7a8000000000000000000003b8000fe
:1007500000f0a300fdff3100050007004c00dd00a4
:1007600021ad20008008780011ff0700000006007e
:10077000c0a020008000eb0020449000a004900066
:10078000c7002000e6014000a80288008902780026
:10079000f40120001503ba003330e1000b003a00e9
:1007a000b5dbba00d5d3ba003330e10007003a0018
:1007b0003503ba003330e10004003a000402e900d6
:1007c000f4ff3b0010002000010037002000200053
:1007d000000006005420ef00e7ff2f00050037005f
:1007e000c0a02000b0019000a3028800c0019000ca
:1007f000e28351000082eb00e6ff2f00c0a0200042
:1008000090019000200190001200b1000380b1001f
:100810000e0032005700ba000480e70009003700dc
:1008200017c0ba000484e700060037000730e10073
:10083000f5ff3a00a00280000000e800a002880056
:10084000f1ff3700f100200001003700010f200008
:1008500000a021000100700023ad20008019780065
:100860002000200080097800ff000700000006003b
:100870002103200000b021000100700021ad200004
:10088000801878002000200080087800f60007001b
:10089000000006000c00fa006000b8002007980075
:1008a000310798006000b800400798005107980091
:1008b000705080004800de006f406000004f7800fc
:1008c000705080004c00de000080fb00e056880085
:1008d000640047008080e8000ecabf0080487800ae
:1008e000805080006101b8002e009000be00900092
:1008f0000000710081807100200798003107980086
:10090000680047008080e8009050800080087800f0
:10091000a05080006101b8004e009000de00900001
:100920000000710081807100400798005107980015
:100930004e019000de0190002e009000be0090005d
:100940001e4278002e000700100798001e0090003d
:100950000080fa00000006000600fa000000eb002c
:1009600010079800200037001e0090004800dd00ae
:100970002007980080c0b300004f78000e003700b9
:100980002e0090000000e00007003d002e009000c7
:100990000000400080007800100221000080680004
:1009a00020079800030037002e0090000000400050
:1009b000200798001e4fe9001e04e000f0ff3a00f7
:1009c0000060fe001e00900080004000c0802000fb
:1009d00000804000ae009000010878001e009000ea
:1009e0000000e800100798009e009000f00f200023
:1009f000808f5000dcff34000080fa000000060009
:100a00002000fa0070079800010f9800120f98005c
:100a1000230f9800645798000080eb00500798005f
:100a20000000eb00400798007e0190008e099000c6
:100a300000002000110020000200400083804800d8
:100a400002002000f3ff2f000002780081027800ee
:100a500002007800830078000001620001806200db
:100a60006102b800640f9800750f98006e0890003e
:100a7000fe089000c000dd0000002000600f98001c
:100a8000710f98006e089000fe0890006112b80087
:100a9000640f9800750f98006e099000fe09900091
:100aa00002007000838070001007980021079800f2
:100ab000460037001e089000ae089000000140007c
:100ac000818148007e0090008e0890000201400065
:100ad000838148001e009000ae009000800f5100fe
:100ae000818f59001a0039001e019000ae0190005c
:100af0007e0090008e089000000051008180590017
:100b00008100d1000080d300300798001e019000c2
:100b1000ae01900000002000110020000200400003
:100b20008380480010079800210798003e0090003d
:100b30006101b8001e089000ae089000020050004d
:100b400083805800100f9800210f9800050037008f
:100b50009e099000330798006000b800100f9800bd
:100b6000210f9800e05680000000e00007003a00e6
:100b7000de0190003e0190007e0090008e08900003
:100b8000b50007005007980006003700ce0190001e
:100b90003e0190007e0090008e089000d500070076
:100ba000400798003e009000010020000001400036
:100bb000818148007e0090008e0890000000410076
:100bc0008180490070079800010f98001e0890006e
:100bd000ae089000e00f5000e08f5800b5ff3a00db
:100be000e05680000000e00005003a005e00900042
:100bf0006102b800440f9800550f980004003700b8
:100c00004e0090006101b800420f9800530f980009
:100c10004e089000de0890000080fa0000000600f8
:100c20006e000700c7a02000801b7800f3ff2000a3
:100c3000830160008301e9000400320067000700bf
:100c4000801b78008301e900fcff3a0041e2a90023
:100c5000005020001012880048a2ef0041e2a800d6
:100c600048a2ef00000006004822ef004022ef00fb
:100c70000000000041e2a8004822ef000000000050
:100c80004022ef001d00090000000000004020008d
:100c9000101288008540a90041e2a80027ad20007d
:100ca00037007800401288003700780051000700b4
:100cb00020ad2000900290008582e90038003200cb
:100cc00010409000f040b20011c0b3000104e100f8
:100cd0000a003a00c0a02000a04090008180fb00e4
:100ce000a1028800a00390003700ba00410007006d
:100cf0008502e900fcff3a002900370021c0b3005b
:100d00000104e1002f003a00c0a0200090029000f2
:100d10000503d1004000b000904078000104780045
:100d2000d0007800810378000500e900150032004a
:100d300001002000a8028800000000009708ba0007
:100d40002c00070097d8ba002700b0000880b00038
:100d5000a80288000000000097d0ba002500070014
:100d60001700ba00230007002700b0000880b00079
:100d7000a80288000603e900eeff3a000500a6007d
:100d800007003700a8028800000000001700ba0022
:100d90001800070017c0ba000080fb00150007000c
:100da0000060fe008540ae00fdff37008540a900d1
:100db00041e2a9004362a80041e2a800411280007c
:100dc00000000600c1c0b3000104e100f4ff3a00d6
:100dd0003700780007000700f1ff37000060fe00d1
:100de0008540ae00fdff37008540a900401280001d
:100df00000000600811f78000060fe008540ae0004
:100e0000fdff37008540ae00fbff37008540a9009d
:100e10004112800040128800cf00780000000600d8
:100e200010028000000ab3001002880000c02000f9
:100e3000101288008540a900a820ef00a900a80092
:100e40009540a80000002800001288006227ef00eb
:100e50006427ef000000060046052000010b780023
:100e600080037800a6802000020b78000a28d500b5
:100e7000c88020006200200006802000171bba00f6
:100e800037dbba0057dbba00371bba0004802000fa
:100e9000350020008000eb000060fe000380fd00b4
:100ea00003407800b44868000160ef000000d20001
:100eb000080040008041eb00108969000380fd00bc
:100ec00003407800b44868000160ef000000d200e1
:100ed000080040008041eb00108969000a20ed0005
:100ee000edff3a000a28ed00e3ff3a000300780026
:100ef0000000060046052000010b78008003780002
:100f00000060fe000002eb001782ba00b702ba00d0
:100f10000004eb0005447800c82ade000502420008
:100f200008024200830142000201e900f4ff3a0096
:080f3000030078000000060038
:020000040000fa
:020000040100f9
:100f3800da0a000002000000800000000c0a00002d
:100f4800ce00000080000000dc0a00000200000063
:100f580082000000000000000c08000000020000f1
:100f680080000000000800000c0000008000000065
:040f78000000000075
:020000040000fa
:020000040100f9
:080fe000cc000000320000000b
:020000040000fa
:020000040100f9
:080000008000040080000000f4
:020000040000fa
:020000040100f9
:100008002001800020018000200180002001800064
:100018002001800020018000200180002001800054
:100028002001800020018000200180002001800044
:100038002001800020018000200180002001800034
:100048002001800020018000200180002001800024
:100058002001800020018000200180002001800014
:100068002001800020018000200180002001800004
:1000780020018000200180002001800020018000f4
:1000880020018000200180002001800020018000e4
:1000980020018000200180002001800020018000d4
:1000a80020018000200180002001800020018000c4
:1000b80020018000200180002001800020018000b4
:1000c80020018000200180002001800020018000a4
:1000d8002001800020018000200180002001800094
:1000e8002001800020018000200180002001800084
:1000f8002001800020018000200180002001800074
:100108002001800020018000200180002001800063
:100118002001800020018000200180002001800053
:100128002001800020018000200180002001800043
:100138002001800020018000200180002001800033
:100148002001800020018000200180002001800023
:100158002001800020018000200180002001800013
:100168002001800020018000200180002001800003
:1001780020018000200180002001800020018000f3
:1001880020018000200180002001800020018000e3
:1001980020018000200180002001800020018000d3
:1001a80020018000200180002001800020018000c3
:1001b80020018000200180002001800020018000b3
:1001c80020018000200180002001800020018000a3
:1001d8002001800020018000200180002001800093
:1001e8002001800020018000200180002001800083
:0801f8002001800020018000bd
:00000001FF
